{
  "contractName": "TodoList",
  "abi": [
    {
      "inputs": [],
      "stateMutability": "nonpayable",
      "type": "constructor"
    },
    {
      "anonymous": false,
      "inputs": [
        {
          "indexed": false,
          "internalType": "uint256",
          "name": "id",
          "type": "uint256"
        },
        {
          "indexed": false,
          "internalType": "bool",
          "name": "completed",
          "type": "bool"
        }
      ],
      "name": "TaskCompleted",
      "type": "event"
    },
    {
      "anonymous": false,
      "inputs": [
        {
          "indexed": false,
          "internalType": "uint256",
          "name": "id",
          "type": "uint256"
        },
        {
          "indexed": false,
          "internalType": "string",
          "name": "content",
          "type": "string"
        },
        {
          "indexed": false,
          "internalType": "bool",
          "name": "completed",
          "type": "bool"
        }
      ],
      "name": "TaskCreated",
      "type": "event"
    },
    {
      "inputs": [],
      "name": "taskCount",
      "outputs": [
        {
          "internalType": "uint256",
          "name": "",
          "type": "uint256"
        }
      ],
      "stateMutability": "view",
      "type": "function",
      "constant": true
    },
    {
      "inputs": [
        {
          "internalType": "uint256",
          "name": "",
          "type": "uint256"
        }
      ],
      "name": "tasks",
      "outputs": [
        {
          "internalType": "uint256",
          "name": "id",
          "type": "uint256"
        },
        {
          "internalType": "string",
          "name": "content",
          "type": "string"
        },
        {
          "internalType": "bool",
          "name": "completed",
          "type": "bool"
        }
      ],
      "stateMutability": "view",
      "type": "function",
      "constant": true
    },
    {
      "inputs": [
        {
          "internalType": "string",
          "name": "_content",
          "type": "string"
        }
      ],
      "name": "createTask",
      "outputs": [],
      "stateMutability": "nonpayable",
      "type": "function"
    },
    {
      "inputs": [
        {
          "internalType": "uint256",
          "name": "_id",
          "type": "uint256"
        }
      ],
      "name": "toggleCompletion",
      "outputs": [],
      "stateMutability": "nonpayable",
      "type": "function"
    },
    {
      "inputs": [],
      "name": "taskList",
      "outputs": [
        {
          "components": [
            {
              "internalType": "uint256",
              "name": "id",
              "type": "uint256"
            },
            {
              "internalType": "string",
              "name": "content",
              "type": "string"
            },
            {
              "internalType": "bool",
              "name": "completed",
              "type": "bool"
            }
          ],
          "internalType": "struct TodoList.Task[]",
          "name": "",
          "type": "tuple[]"
        }
      ],
      "stateMutability": "view",
      "type": "function",
      "constant": true
    }
  ],
  "bytecode": "0x60806040526000805534801561001457600080fd5b5060408051808201909152600c81526b496e697469616c205461736b60a01b602082015261004190610046565b61025f565b60008054908061005583610199565b9091555050604080516060810182526000805480835260208084018681528486018490529183526001808252949092208351815590518051939491936100a393928501929190910190610100565b50604091820151600291909101805460ff19169115159190911790556000805491517f05d0fb833127fc08168556d0e7ca9554fc3f6bc843b3b7d2bf1c35aea6bab660926100f59290918591906101c0565b60405180910390a150565b82805461010c90610225565b90600052602060002090601f01602090048101928261012e5760008555610174565b82601f1061014757805160ff1916838001178555610174565b82800160010185558215610174579182015b82811115610174578251825591602001919060010190610159565b50610180929150610184565b5090565b5b808211156101805760008155600101610185565b6000600182016101b957634e487b7160e01b600052601160045260246000fd5b5060010190565b83815260006020606081840152845180606085015260005b818110156101f4578681018301518582016080015282016101d8565b81811115610206576000608083870101525b5093151560408401525050601f91909101601f19160160800192915050565b600181811c9082168061023957607f821691505b60208210810361025957634e487b7160e01b600052602260045260246000fd5b50919050565b61085c8061026e6000396000f3fe608060405234801561001057600080fd5b50600436106100575760003560e01c8063111002aa1461005c5780638d97767214610071578063b6cb58a51461009c578063eb7e7f1a146100b3578063ebc218a7146100c8575b600080fd5b61006f61006a3660046105d1565b6100db565b005b61008461007f366004610682565b610195565b604051610093939291906106e8565b60405180910390f35b6100a560005481565b604051908152602001610093565b6100bb610242565b6040516100939190610713565b61006f6100d6366004610682565b6103ca565b6000805490806100ea836107ac565b90915550506040805160608101825260008054808352602080840186815284860184905291835260018082529490922083518155905180519394919361013893928501929190910190610522565b50604091820151600291909101805460ff19169115159190911790556000805491517f05d0fb833127fc08168556d0e7ca9554fc3f6bc843b3b7d2bf1c35aea6bab6609261018a9290918591906106e8565b60405180910390a150565b6001602081905260009182526040909120805491810180546101b6906107c5565b80601f01602080910402602001604051908101604052809291908181526020018280546101e2906107c5565b801561022f5780601f106102045761010080835404028352916020019161022f565b820191906000526020600020905b81548152906001019060200180831161021257829003601f168201915b5050506002909301549192505060ff1683565b60606000805467ffffffffffffffff811115610260576102606105bb565b6040519080825280602002602001820160405280156102b757816020015b6102a4604051806060016040528060008152602001606081526020016000151581525090565b81526020019060019003908161027e5790505b50905060015b60005481116103c457600081815260016020818152604092839020835160608101909452805484529182018054918401916102f7906107c5565b80601f0160208091040260200160405190810160405280929190818152602001828054610323906107c5565b80156103705780601f1061034557610100808354040283529160200191610370565b820191906000526020600020905b81548152906001019060200180831161035357829003601f168201915b50505091835250506002919091015460ff161515602090910152826103966001846107f9565b815181106103a6576103a6610810565b602002602001018190525080806103bc906107ac565b9150506102bd565b50919050565b60008181526001602081815260408084208151606081019092528054825292830180549193928401916103fc906107c5565b80601f0160208091040260200160405190810160405280929190818152602001828054610428906107c5565b80156104755780601f1061044a57610100808354040283529160200191610475565b820191906000526020600020905b81548152906001019060200180831161045857829003601f168201915b50505091835250506002919091015460ff161515602091820152604080830180511590526000858152600180845291902083518155838301518051949550859491936104c693850192910190610522565b50604091820151600291909101805460ff191691151591909117905581810151815184815290151560208201527fe21fa966ca5cd02748c0752352d18c48165e61cb55b4c29cccf924b5a95fcff1910160405180910390a15050565b82805461052e906107c5565b90600052602060002090601f0160209004810192826105505760008555610596565b82601f1061056957805160ff1916838001178555610596565b82800160010185558215610596579182015b8281111561059657825182559160200191906001019061057b565b506105a29291506105a6565b5090565b5b808211156105a257600081556001016105a7565b634e487b7160e01b600052604160045260246000fd5b6000602082840312156105e357600080fd5b813567ffffffffffffffff808211156105fb57600080fd5b818401915084601f83011261060f57600080fd5b813581811115610621576106216105bb565b604051601f8201601f19908116603f01168101908382118183101715610649576106496105bb565b8160405282815287602084870101111561066257600080fd5b826020860160208301376000928101602001929092525095945050505050565b60006020828403121561069457600080fd5b5035919050565b6000815180845260005b818110156106c1576020818501810151868301820152016106a5565b818111156106d3576000602083870101525b50601f01601f19169290920160200192915050565b838152606060208201526000610701606083018561069b565b90508215156040830152949350505050565b60006020808301818452808551808352604092508286019150828160051b87010184880160005b8381101561078857603f19898403018552815160608151855288820151818a8701526107688287018261069b565b92890151151595890195909552509487019492509086019060010161073a565b509098975050505050505050565b634e487b7160e01b600052601160045260246000fd5b6000600182016107be576107be610796565b5060010190565b600181811c908216806107d957607f821691505b6020821081036103c457634e487b7160e01b600052602260045260246000fd5b60008282101561080b5761080b610796565b500390565b634e487b7160e01b600052603260045260246000fdfea264697066735822122014e4ffe765c07a8524098967925acaaf018f024bfec1b979dc185e03921a486564736f6c634300080e0033",
  "immutableReferences": {},
  "source": "// SPDX-License-Identifier: MIT\npragma solidity >=0.4.22 <0.9.0;\n\ncontract TodoList {\n    uint256 public taskCount = 0;\n\n    struct Task {\n        uint256 id;\n        string content;\n        bool completed;\n    }\n\n    mapping(uint256 => Task) public tasks;\n\n    event TaskCreated(uint256 id, string content, bool completed);\n\n    event TaskCompleted(uint256 id, bool completed);\n\n    constructor() {\n        createTask(\"Initial Task\");\n    }\n\n    function createTask(string memory _content) public {\n        taskCount++;\n        tasks[taskCount] = Task(taskCount, _content, false);\n        emit TaskCreated(taskCount, _content, false);\n    }\n\n    function toggleCompletion(uint256 _id) public {\n        Task memory _task = tasks[_id];\n        _task.completed = !_task.completed;\n        tasks[_id] = _task;\n        emit TaskCompleted(_id, _task.completed);\n    }\n\n    function taskList() public view returns (Task[] memory) {\n        Task[] memory res = new Task[](taskCount);\n        for (uint256 i = 1; i <= taskCount; i++) {\n            res[i - 1] = tasks[i];\n        }\n        return res;\n    }\n}\n",
  "sourcePath": "/home/diptangshudey/MyFiles/Web3/ToDo_List/contracts/TodoList.sol",
  "compiler": {
    "name": "solc",
    "version": "0.8.14+commit.80d49f37.Emscripten.clang"
  },
  "schemaVersion": "3.4.7",
  "updatedAt": "2022-06-05T06:42:45.927Z",
  "networkType": "ethereum",
  "devdoc": {
    "kind": "dev",
    "methods": {},
    "version": 1
  },
  "userdoc": {
    "kind": "user",
    "methods": {},
    "version": 1
  }
}